{
  "contractName": "voting",
  "abi": [
    {
      "inputs": [],
      "stateMutability": "nonpayable",
      "type": "constructor"
    },
    {
      "inputs": [
        {
          "internalType": "uint256",
          "name": "id",
          "type": "uint256"
        }
      ],
      "name": "castVote",
      "outputs": [],
      "stateMutability": "nonpayable",
      "type": "function"
    },
    {
      "inputs": [],
      "name": "displayVotes",
      "outputs": [
        {
          "internalType": "uint256[3]",
          "name": "",
          "type": "uint256[3]"
        }
      ],
      "stateMutability": "view",
      "type": "function",
      "constant": true
    }
  ],
  "bytecode": "0x608060405234801561001057600080fd5b5060008060006003811061002757610026610067565b5b018190555060008060016003811061004257610041610067565b5b018190555060008060026003811061005d5761005c610067565b5b0181905550610096565b7f4e487b7100000000000000000000000000000000000000000000000000000000600052603260045260246000fd5b610438806100a56000396000f3fe608060405234801561001057600080fd5b50600436106100365760003560e01c80633eb76b9c1461003b5780636c8326f214610057575b600080fd5b6100556004803603810190610050919061027d565b610075565b005b61005f6101d5565b60405161006c9190610355565b60405180910390f35b600360003373ffffffffffffffffffffffffffffffffffffffff1673ffffffffffffffffffffffffffffffffffffffff16815260200190815260200160002060009054906101000a900460ff16156100cc57600080fd5b60008103610106576001600080600381106100ea576100e9610370565b5b0160008282546100fa91906103ce565b9250508190555061017a565b60018103610141576001600060016003811061012557610124610370565b5b01600082825461013591906103ce565b92505081905550610179565b6002810361017857600160006002600381106101605761015f610370565b5b01600082825461017091906103ce565b925050819055505b5b5b6001600360003373ffffffffffffffffffffffffffffffffffffffff1673ffffffffffffffffffffffffffffffffffffffff16815260200190815260200160002060006101000a81548160ff02191690831515021790555050565b6101dd610220565b6000600380602002604051908101604052809291908260038015610216576020028201915b815481526020019060010190808311610202575b5050505050905090565b6040518060600160405280600390602082028036833780820191505090505090565b600080fd5b6000819050919050565b61025a81610247565b811461026557600080fd5b50565b60008135905061027781610251565b92915050565b60006020828403121561029357610292610242565b5b60006102a184828501610268565b91505092915050565b600060039050919050565b600081905092915050565b6000819050919050565b6102d381610247565b82525050565b60006102e583836102ca565b60208301905092915050565b6000602082019050919050565b610307816102aa565b61031181846102b5565b925061031c826102c0565b8060005b8381101561034d57815161033487826102d9565b965061033f836102f1565b925050600181019050610320565b505050505050565b600060608201905061036a60008301846102fe565b92915050565b7f4e487b7100000000000000000000000000000000000000000000000000000000600052603260045260246000fd5b7f4e487b7100000000000000000000000000000000000000000000000000000000600052601160045260246000fd5b60006103d982610247565b91506103e483610247565b92508282019050808211156103fc576103fb61039f565b5b9291505056fea264697066735822122065a3b329b945dd95747da54222d51b57ff7ed8773178c43dd35b134731c7276f64736f6c63430008120033",
  "immutableReferences": {},
  "source": "// SPDX-License-Identifier: MIT\npragma solidity >=0.4.22 <0.9.0;\n\ncontract voting {\n  uint[3] _votes; // 3 contenstants\n  \n  mapping(address=>bool) _voters;\n\n  constructor() public {\n    _votes[0]=0;\n    _votes[1]=0;\n    _votes[2]=0;\n  }\n\n  function castVote(uint id) public {\n    require(!_voters[msg.sender]);\n    if(id==0)\n      _votes[0]+=1;\n    else if(id==1)\n      _votes[1]+=1;\n    else if(id==2)\n      _votes[2]+=1;\n    \n    _voters[msg.sender]=true;\n  }\n\n  function displayVotes() public view returns(uint[3] memory){\n    return(_votes);\n  }\n}\n",
  "sourcePath": "/Users/ms/Desktop/voting-dapp/contracts/voting.sol",
  "compiler": {
    "name": "solc",
    "version": "0.8.18+commit.87f61d96.Emscripten.clang"
  },
  "schemaVersion": "3.4.14",
  "updatedAt": "2023-06-28T10:59:50.195Z",
  "networkType": "ethereum",
  "devdoc": {
    "kind": "dev",
    "methods": {},
    "version": 1
  },
  "userdoc": {
    "kind": "user",
    "methods": {},
    "version": 1
  }
}